:08000000803102288731FD2F39
:100DFE00122FFA30F2000030F3000130F202003010
:100E0E00F33B72087304031D0D2F0E2F042FFF30BA
:100E1E00F007FF30F13D70087104031D172F182FD6
:100E2E00002F0800F901FA012A2F760879078400AD
:100E3E0077087A3D850000088731622787310130B7
:100E4E00F9070030FA3D76087907840077087A3D75
:100E5E0085001200031D342F352F1C2F0800F500BE
:100E6E007508F4000430F436890B3A2F74080F39E4
:100E7E00203E400198007508F4000430F436890BCA
:100E8E00452F74080F3998000130F0000030F10042
:100E9E008631FF26873175080F39203E40019800B4
:100EAE0075080F3998000130F0000030F1008631DE
:100EBE00FF2687310800F5007508F4000430F4367B
:100ECE00890B662F74080F39303E40019800750863
:100EDE00F4000430F436890B712F74080F39103E6C
:100EEE0098000130F0000030F1008631FF26873186
:100EFE0075080F39303E4001980075080F39103EC5
:100F0E0098000130F0000030F1008631FF26873165
:100F1E000800400193018731C5278731283087317A
:100F2E00362787310C3087313627873106308731A7
:100F3E003627873101308731362787318030873128
:100F4E00362787311030F6008830F70087311927A1
:100F5E008731C0308731362787310030F600883030
:100F6E00F7008731192787313C30F0000030F1004F
:100F7E008631FF268731A52F803102283C30F000C4
:100F8E000030F1008631FF26873123304001980072
:100F9E00033098001430F0000030F1008631FF2647
:100FAE008731233040019800033098000530F0005F
:100FBE000030F1008631FF26873123304001980042
:100FCE00033098000530F0000030F1008631FF2626
:100FDE008731233040019800033098000530F0002F
:100FEE000030F1008631FF2687310800400187313D
:100FFE00902F45344E3454344534523420345034CA
:10100E0041345334533457344F34523444343A34D5
:10101E00003450346C3465346134733465342034A8
:10102E002034203420342034203420342034203412
:02103E0000347C
:020000040001F9
:08000000FF3FFF3FFF3FFF3F00
:0A000E008C3FDD379F3FFF1FFF3FCF
:00000001FF
